:10000000C20C02005F00F00C0500090C0600640041
:1000100084056000E403080A650066006D00040CB6
:100020002E003B0069006A007900190501022B00CF
:1000300009028B00EA010B0229006800190CAA00D2
:100040000307240AA8021F0AEA012A095B09C30957
:10005000B709160A640010024306370A080243066D
:100060000008B0000307370A4306370A00085106A4
:10007000550A31064B0A1106430A660700080D0CA3
:100080003000110500086607590A1A0CF001080C27
:1000900032007103000803046607030533031A0CDA
:1000A000F001F2020008710300086606590A130203
:1000B000850971000008640014024306680A0802FA
:1000C00043060008B4000307680A4306680A0008EC
:1000D0005506800A3506750A1507000846051A0CEC
:1000E0003400080C36007503000837030306460485
:1000F000030746051A0CF401F60200087503000810
:1001000046041A0CF401750000082C00130C8C0036
:100110004306A30A110C8C004306A50A310C8C007F
:100120004306A70A340C8C004306A90A360C8C003F
:100130004306AB0A380C8C004306AD0A3F0C8C001A
:100140004306B20A00080D0400080D050008010C62
:10015000AE0A040CAE0A060CAE0A080C2E003B00D8
:100160007A000008300CCE01370015050008150292
:10017000430700080D0700082D0700082D041C0286
:10018000370015050008640018024306D00A08026B
:1001900043060008B8000307D00A4306D00A000847
:1001A0007800B8020304060703057903590700081D
:1001B0001902790019052B002B03AB010B0700086E
:1001C00003042B0603057A03FB0200080E023B0022
:1001D000070E4306F60A020E4307FB0A300CFA012B
:1001E0003A0C9A000307F60A070CFA011A023C00BF
:1001F0002D057A0000081A0C9A000306010B410C29
:10020000F50A340C9A000306070B470CF50A3E0C5E
:100210009A0003060D0BFC0CF50A2B0C1A062F0C8A
:10022000F70A3F07160B3F04260400083F05260582
:020230000008C4
:04202000AA00F3001F
:00000001FF
